{
  "_format": "hh-sol-artifact-1",
  "contractName": "GDrive",
  "sourceName": "contracts/GDrive.sol",
  "abi": [
    {
      "inputs": [],
      "name": "accessShare",
      "outputs": [
        {
          "components": [
            {
              "internalType": "address",
              "name": "user",
              "type": "address"
            },
            {
              "internalType": "bool",
              "name": "access",
              "type": "bool"
            }
          ],
          "internalType": "struct GDrive.Access[]",
          "name": "",
          "type": "tuple[]"
        }
      ],
      "stateMutability": "view",
      "type": "function"
    },
    {
      "inputs": [
        {
          "internalType": "address",
          "name": "u",
          "type": "address"
        },
        {
          "internalType": "string",
          "name": "link",
          "type": "string"
        }
      ],
      "name": "add",
      "outputs": [],
      "stateMutability": "nonpayable",
      "type": "function"
    },
    {
      "inputs": [
        {
          "internalType": "address",
          "name": "u",
          "type": "address"
        }
      ],
      "name": "allow",
      "outputs": [],
      "stateMutability": "nonpayable",
      "type": "function"
    },
    {
      "inputs": [
        {
          "internalType": "address",
          "name": "u",
          "type": "address"
        }
      ],
      "name": "disallow",
      "outputs": [],
      "stateMutability": "nonpayable",
      "type": "function"
    },
    {
      "inputs": [
        {
          "internalType": "address",
          "name": "u",
          "type": "address"
        }
      ],
      "name": "display",
      "outputs": [
        {
          "internalType": "string[]",
          "name": "",
          "type": "string[]"
        }
      ],
      "stateMutability": "view",
      "type": "function"
    }
  ],
  "bytecode": "0x608060405234801561001057600080fd5b50611371806100206000396000f3fe608060405234801561001057600080fd5b50600436106100575760003560e01c806336d6da551461005c578063a9ed9cb814610078578063af3bb1e014610094578063eb39113f146100b2578063ff9913e8146100e2575b600080fd5b61007660048036038101906100719190610c1a565b6100fe565b005b610092600480360381019061008d9190610c76565b610174565b005b61009c610396565b6040516100a99190610dab565b60405180910390f35b6100cc60048036038101906100c79190610c76565b61049f565b6040516100d99190610f0e565b60405180910390f35b6100fc60048036038101906100f79190610c76565b6106b6565b005b600160008373ffffffffffffffffffffffffffffffffffffffff1673ffffffffffffffffffffffffffffffffffffffff1681526020019081526020016000208190806001815401808255809150506001900390600052602060002001600090919091909150908161016f9190611146565b505050565b6000600360003373ffffffffffffffffffffffffffffffffffffffff1673ffffffffffffffffffffffffffffffffffffffff16815260200190815260200160002060008373ffffffffffffffffffffffffffffffffffffffff1673ffffffffffffffffffffffffffffffffffffffff16815260200190815260200160002060006101000a81548160ff02191690831515021790555060005b600260003373ffffffffffffffffffffffffffffffffffffffff1673ffffffffffffffffffffffffffffffffffffffff16815260200190815260200160002080549050811015610392578173ffffffffffffffffffffffffffffffffffffffff16600260003373ffffffffffffffffffffffffffffffffffffffff1673ffffffffffffffffffffffffffffffffffffffff16815260200190815260200160002082815481106102be576102bd611218565b5b9060005260206000200160000160009054906101000a900473ffffffffffffffffffffffffffffffffffffffff1673ffffffffffffffffffffffffffffffffffffffff160361037f576000600260003373ffffffffffffffffffffffffffffffffffffffff1673ffffffffffffffffffffffffffffffffffffffff168152602001908152602001600020828154811061035a57610359611218565b5b9060005260206000200160000160146101000a81548160ff0219169083151502179055505b808061038a90611276565b91505061020c565b5050565b6060600260003373ffffffffffffffffffffffffffffffffffffffff1673ffffffffffffffffffffffffffffffffffffffff168152602001908152602001600020805480602002602001604051908101604052809291908181526020016000905b82821015610496578382906000526020600020016040518060400160405290816000820160009054906101000a900473ffffffffffffffffffffffffffffffffffffffff1673ffffffffffffffffffffffffffffffffffffffff1673ffffffffffffffffffffffffffffffffffffffff1681526020016000820160149054906101000a900460ff161515151581525050815260200190600101906103f7565b50505050905090565b60603373ffffffffffffffffffffffffffffffffffffffff168273ffffffffffffffffffffffffffffffffffffffff1614806105615750600360008373ffffffffffffffffffffffffffffffffffffffff1673ffffffffffffffffffffffffffffffffffffffff16815260200190815260200160002060003373ffffffffffffffffffffffffffffffffffffffff1673ffffffffffffffffffffffffffffffffffffffff16815260200190815260200160002060009054906101000a900460ff165b6105a0576040517f08c379a00000000000000000000000000000000000000000000000000000000081526004016105979061131b565b60405180910390fd5b600160008373ffffffffffffffffffffffffffffffffffffffff1673ffffffffffffffffffffffffffffffffffffffff168152602001908152602001600020805480602002602001604051908101604052809291908181526020016000905b828210156106ab57838290600052602060002001805461061e90610f5f565b80601f016020809104026020016040519081016040528092919081815260200182805461064a90610f5f565b80156106975780601f1061066c57610100808354040283529160200191610697565b820191906000526020600020905b81548152906001019060200180831161067a57829003601f168201915b5050505050815260200190600101906105ff565b505050509050919050565b6001600360003373ffffffffffffffffffffffffffffffffffffffff1673ffffffffffffffffffffffffffffffffffffffff16815260200190815260200160002060008373ffffffffffffffffffffffffffffffffffffffff1673ffffffffffffffffffffffffffffffffffffffff16815260200190815260200160002060006101000a81548160ff0219169083151502179055506000803373ffffffffffffffffffffffffffffffffffffffff1673ffffffffffffffffffffffffffffffffffffffff16815260200190815260200160002060008273ffffffffffffffffffffffffffffffffffffffff1673ffffffffffffffffffffffffffffffffffffffff16815260200190815260200160002060009054906101000a900460ff16156109645760005b600260003373ffffffffffffffffffffffffffffffffffffffff1673ffffffffffffffffffffffffffffffffffffffff16815260200190815260200160002080549050811015610962578173ffffffffffffffffffffffffffffffffffffffff16600260003373ffffffffffffffffffffffffffffffffffffffff1673ffffffffffffffffffffffffffffffffffffffff168152602001908152602001600020828154811061088e5761088d611218565b5b9060005260206000200160000160009054906101000a900473ffffffffffffffffffffffffffffffffffffffff1673ffffffffffffffffffffffffffffffffffffffff160361094f576001600260003373ffffffffffffffffffffffffffffffffffffffff1673ffffffffffffffffffffffffffffffffffffffff168152602001908152602001600020828154811061092a57610929611218565b5b9060005260206000200160000160146101000a81548160ff0219169083151502179055505b808061095a90611276565b9150506107dc565b505b600260003373ffffffffffffffffffffffffffffffffffffffff1673ffffffffffffffffffffffffffffffffffffffff16815260200190815260200160002060405180604001604052808373ffffffffffffffffffffffffffffffffffffffff168152602001600115158152509080600181540180825580915050600190039060005260206000200160009091909190915060008201518160000160006101000a81548173ffffffffffffffffffffffffffffffffffffffff021916908373ffffffffffffffffffffffffffffffffffffffff16021790555060208201518160000160146101000a81548160ff021916908315150217905550505050565b6000604051905090565b600080fd5b600080fd5b600073ffffffffffffffffffffffffffffffffffffffff82169050919050565b6000610aa182610a76565b9050919050565b610ab181610a96565b8114610abc57600080fd5b50565b600081359050610ace81610aa8565b92915050565b600080fd5b600080fd5b6000601f19601f8301169050919050565b7f4e487b7100000000000000000000000000000000000000000000000000000000600052604160045260246000fd5b610b2782610ade565b810181811067ffffffffffffffff82111715610b4657610b45610aef565b5b80604052505050565b6000610b59610a62565b9050610b658282610b1e565b919050565b600067ffffffffffffffff821115610b8557610b84610aef565b5b610b8e82610ade565b9050602081019050919050565b82818337600083830152505050565b6000610bbd610bb884610b6a565b610b4f565b905082815260208101848484011115610bd957610bd8610ad9565b5b610be4848285610b9b565b509392505050565b600082601f830112610c0157610c00610ad4565b5b8135610c11848260208601610baa565b91505092915050565b60008060408385031215610c3157610c30610a6c565b5b6000610c3f85828601610abf565b925050602083013567ffffffffffffffff811115610c6057610c5f610a71565b5b610c6c85828601610bec565b9150509250929050565b600060208284031215610c8c57610c8b610a6c565b5b6000610c9a84828501610abf565b91505092915050565b600081519050919050565b600082825260208201905092915050565b6000819050602082019050919050565b610cd881610a96565b82525050565b60008115159050919050565b610cf381610cde565b82525050565b604082016000820151610d0f6000850182610ccf565b506020820151610d226020850182610cea565b50505050565b6000610d348383610cf9565b60408301905092915050565b6000602082019050919050565b6000610d5882610ca3565b610d628185610cae565b9350610d6d83610cbf565b8060005b83811015610d9e578151610d858882610d28565b9750610d9083610d40565b925050600181019050610d71565b5085935050505092915050565b60006020820190508181036000830152610dc58184610d4d565b905092915050565b600081519050919050565b600082825260208201905092915050565b6000819050602082019050919050565b600081519050919050565b600082825260208201905092915050565b60005b83811015610e33578082015181840152602081019050610e18565b60008484015250505050565b6000610e4a82610df9565b610e548185610e04565b9350610e64818560208601610e15565b610e6d81610ade565b840191505092915050565b6000610e848383610e3f565b905092915050565b6000602082019050919050565b6000610ea482610dcd565b610eae8185610dd8565b935083602082028501610ec085610de9565b8060005b85811015610efc5784840389528151610edd8582610e78565b9450610ee883610e8c565b925060208a01995050600181019050610ec4565b50829750879550505050505092915050565b60006020820190508181036000830152610f288184610e99565b905092915050565b7f4e487b7100000000000000000000000000000000000000000000000000000000600052602260045260246000fd5b60006002820490506001821680610f7757607f821691505b602082108103610f8a57610f89610f30565b5b50919050565b60008190508160005260206000209050919050565b60006020601f8301049050919050565b600082821b905092915050565b600060088302610ff27fffffffffffffffffffffffffffffffffffffffffffffffffffffffffffffffff82610fb5565b610ffc8683610fb5565b95508019841693508086168417925050509392505050565b6000819050919050565b6000819050919050565b600061104361103e61103984611014565b61101e565b611014565b9050919050565b6000819050919050565b61105d83611028565b6110716110698261104a565b848454610fc2565b825550505050565b600090565b611086611079565b611091818484611054565b505050565b5b818110156110b5576110aa60008261107e565b600181019050611097565b5050565b601f8211156110fa576110cb81610f90565b6110d484610fa5565b810160208510156110e3578190505b6110f76110ef85610fa5565b830182611096565b50505b505050565b600082821c905092915050565b600061111d600019846008026110ff565b1980831691505092915050565b6000611136838361110c565b9150826002028217905092915050565b61114f82610df9565b67ffffffffffffffff81111561116857611167610aef565b5b6111728254610f5f565b61117d8282856110b9565b600060209050601f8311600181146111b0576000841561119e578287015190505b6111a8858261112a565b865550611210565b601f1984166111be86610f90565b60005b828110156111e6578489015182556001820191506020850194506020810190506111c1565b8683101561120357848901516111ff601f89168261110c565b8355505b6001600288020188555050505b505050505050565b7f4e487b7100000000000000000000000000000000000000000000000000000000600052603260045260246000fd5b7f4e487b7100000000000000000000000000000000000000000000000000000000600052601160045260246000fd5b600061128182611014565b91507fffffffffffffffffffffffffffffffffffffffffffffffffffffffffffffffff82036112b3576112b2611247565b5b600182019050919050565b600082825260208201905092915050565b7f596f7520646f6e27742068617665206163636573730000000000000000000000600082015250565b60006113056015836112be565b9150611310826112cf565b602082019050919050565b60006020820190508181036000830152611334816112f8565b905091905056fea26469706673582212206697bb5b99a52f6e7b7de2101dbb89ee716c1d6ed17f98352e90db401420b29e64736f6c63430008130033",
  "linkReferences": {},
  "deployedLinkReferences": {}
}